:020000041000EA
:20000000000000201C252000D2B3625A000100200000000008346335010000000000000028
:200020000000000000000000000000000000000000000000000000000000000000000000C0
:200040000000000000000000000000000000000000000000000000000000000000000000A0
:20006000000000000000000000000000000000000000000000000000000000000000000080
:20008000000000000000000000000000000000000000000000000000000000000000000060
:2000A000000000000000000000000000000000000000000000000000000000000000000040
:2000C000000000000000000000000000000000000000000000000000000000000000000020
:2000E000000000000000000000000000000000000000000000000000000000000000000000
:2001000038180120F1010020F9010020FB0100208302002081020020B90400200000000001
:2001200000000000000000000000000003020020050200200000000007020020090200201F
:200140000B0200200B0200200B0200200B0200200B0200200B0200200B0200200B02002037
:200160000B0200200B0200200B0200200B0200200B0200200B0200200B0200200B02002017
:200180000B0200200B0200200B0200200B0200200B0200200B020020B50400200B0200204B
:2001A0000B0200200B0200200B0200200B0200200B0200200B0200200B0200200B020020D7
:2001C0000B0200200B0200200B0200200B0200200B0200200B020020DFF810D000F03EF834
:2001E0000048004781170020AFF3008038180120064CA047064C2047FEE7FEE7FEE7FEE79F
:20020000FEE7FEE7FEE7FEE7FEE7FEE769040020D901002040EA01039B0703D009E008C99C
:20022000121F08C0042AFAD203E011F8013B00F8013B521EF9D27047D2B201E000F8012BF4
:20024000491EFBD270470022F6E710B513460A4604461946FFF7F0FF204610BD064C074DDF
:2002600006E0E06840F0010394E8070098471034AC42F6D3FFF7B4FFCC240020DC240020E6
:200280007047704770B50C460288A368D90A5143E2684FF080758A4215D2A1600188C1F5FC
:2002A000006201EB62110180A068A84209D2204600F072F8E16840EA0120E060A068000291
:2002C000A060002070BD5B1AA360511AE1600188A1EB51110180A068A84209D2204600F092
:2002E0005BF8E16840EA0120E060A0680002A060012070BD2DE9F04107460E46904601249C
:20030000354607E007EB44004146FFF7BBFF00EB44046D1E002DF5DC0120B040201ABDE862
:20032000F0812DE9F04780460F46D8F80840D8F80C5000264FF080790FE064087600A5428A
:2003400002D32D1B46F001064C4505D22402404600F022F840EA05257F1E002FEDDCC8F87C
:200360000840C8F80C503046BDE8F08770B504462161002060602060A061E060401EA06097
:200380000025204600F008F8E16840EA0120E0606D1C052DF5DB70BD38B50446002000906F
:2003A000D4E9000188420AD1206969460268204690476061216800980144616020B12068BA
:2003C000411C2160007838BD0120A061FF2038BD2DE9F047074688469146012500260024ED
:2003E00009E007EB45004946FFF74CFF00EB4505A0400643641C4445F3DB3046BDE8F08746
:2004000008B50020009001208DF8000004218DF802108DF8030008208DF80100022000F0C5
:20042000C9FC012000F0DEFC002000F0CBFC002000F0D0FC072000F0ADFC062000F0A2FCE5
:20044000052000F097FC002000F0ACFC032000F089FC684600F09EF900F096F9014908603E
:2004600008BD00000C250020BFF35F8F10490F480860BFF34F8F0E488030016841F4700109
:2004800001600B481C30016841F480310160016841F400310160016841F480210160044890
:2004A0000C30016841F01001016070470001002008ED00E001F000BC70474907090E002854
:2004C00004DB00F1E02080F80014704700F00F0000F1E02080F8141D704702E008C8121FD6
:2004E00008C1002AFAD170477047002001E001C1121F002AFBD1704702490A6860F300021D
:200500000A6070470000202002498A6960F300028A617047000020200249CA6960F3000232
:20052000CA617047000020202DE9F04180460F460F48C46800F58870456805F5807501F03A
:200540004DFA0C4E3268A41A4FF480518C4200DD0C460949C8F80010AB1845682246184639
:20056000A8473C603068204430600020BDE8F081703A002010250020702900202DE9F0410F
:200580000F4616460948456805F5807501F026FA0346074C1B683246606839462844984783
:2005A0006068304460600020BDE8F081703B002010250020EFF3108272B681684160016062
:2005C000002A00D162B670478160416001601144491EC160704701684068814201D1012013
:2005E00070470020704710B5EFF3108472B600F004F8002C00D162B610BD01688268914216
:2006000003D14168C268914204D041680068401E814201D1012070470020704730B50246AC
:200620000023EFF3108472B61046FFF7D4FF90B910689168884208D31068D568A84204D206
:200640001068411C1160037805E01568D068854201D10378116004B962B6184630BD70B575
:2006600004460E46EFF3108572B62046FFF7C5FFA8B96068A168884209D36068E16888426A
:2006800005D2606806706068401C606007E06068E168884203D160680670A0686060002D98
:2006A00000D162B670BD000010B506480168C90FFCD10020FFF720FFBDE81040002001F0C8
:2006C000E5B900000000202070B50546002001F0DDF902201C494A6960F30F024A6101207B
:2006E000D1F8F02060F30702C1F8F020174808600720486044F21820C1F8F4000020C86201
:2007000001200A6960F300020A6101F0BFF9104C606865600C486030A168A0600D48E06071
:200720000120FFF7E9FE0120FFF7EEFE0120FFF7F3FE012008494A6B60F300024A63E0693E
:2007400010F0010FFBD170BD0000204000025F00000020206B0002000000104010B500F01D
:2007600077F8002010BD0B4611461A4600F0A0B90B4611461A4600F013B900000148C06897
:2007800070470000FC2400200148406870470000FC24002070B50446207801F0FBFA6078B5
:2007A00001F010FBA078401EC0B201F013FBE078401EC0B201F0F6FA00204FF08045696858
:2007C00060F304116960012001F0F4FA012001F008FB0120296860F34511296020781A49F4
:2007E00008B301281ED108706078184A504300EBD070E278401090FBF2F088606078134A82
:20080000A378504300EBD070E278401012FB03F290FBF2F0C86060780C4A504300EBD070D2
:200820004010486070BD00200870E2780748B0FBF2F28A60E278A378B0FBF2F2B2FBF3F243
:20084000CA60486070BD0000FC240020005A62022DE9F0410E460446B1F5004F36D3C10BEC
:20086000C9030F1B07F50047C7F30738002507E00021204600F03DF86D1CADB204F58054D9
:200880004545F5D3F01BC0F3CF37C0F30E00010500D0012101EB1036002507E001212046C3
:2008A00000F027F86D1CADB204F50044BD42F5D3002507E00021204600F01BF86D1CADB2BF
:2008C00004F58054B542F5D3BDE8F081300500D0012000EB113086B2002507E00021204659
:2008E00000F007F86D1CADB204F58054B542F5D3EAE708B520228DF80020030C8DF801305B
:20090000030A8DF802308DF8030021B1012905D0022908D104E08DF8002004E0522000E0F7
:20092000D8208DF8000000F02BF90421684600F027FB00F006F8002008BD0121022000F03A
:2009400063BA1CB505208DF80400012301AA1946684600F073FA9DF80000C007F5D11CBDC7
:2009600010B5C2B01446012818D002208DF80000080C8DF80100080A8DF802008DF8031063
:20098000194601A8FFF746FC00F0FAF8211D684600F0F6FAFFF7D5FF42B010BD4220E5E7B2
:2009A00013460A4601460020AFF300802DE9F04782460C4621F0FF001F461646A0420CD00F
:2009C000051B05F58075AE4200D215462A465046FFF7C6FF2F442C44761BC6F30F280025A1
:2009E0004FF480790BE03B464A4621465046FFF7B7FF6D1CADB204F5807407F580774545C4
:200A0000F1D316F0FF0204D03B4621465046FFF7A7FF0020BDE8F08710B586B005218DF83B
:200A20000C100446002135208DF8100000910123019103AA1946684600F000FA012304AA88
:200A4000194601A800F0FAF90CB1012100E000219DF8040042060AD49DF8002012F07C0FCA
:200A600005D1120603D4C0F340028A420BD09DF8002020F0400022F0FC0261F341008DF8E6
:200A800000208DF8040001208DF808009DF800008DF809009DF804008DF80A0000F070F85C
:200AA000032102A800F06CFAFFF74BFF06B010BD2DE9F84315460446042901D2084605E026
:200AC000A80703D005F00300C0F1040010F0FF06A1EB06004FEA900700F003084FF003093A
:200AE00011D08DF80090200C8DF80100200A8DF802008DF8034004236A463146284600F029
:200B00009DF9344435444FB1234603223946284600F0E4F905EB870504EB8704B8F1000F58
:200B20000FD08DF80090200C8DF80100200A8DF802008DF8034004236A464146284600F0DA
:200B40007DF90020BDE8F8831CB59F208DF8040000208DF800008DF801008DF802000123F0
:200B600001AA0321684600F069F99DF800009DF80110000440EA01209DF8021008431CBD51
:200B800008B506208DF800000121684600F0F8F908BD00002DE9F04107460D4616464FF0F5
:200BA0008048D8F81C00C0F31304012E04D100222946384600F0C2F80D48874205D1012ED7
:200BC00001D0AC4308E02C4306E00A48874203D1012E09D024EA8524D8F81C0064F3130014
:200BE000C8F81C00BDE8F08144EA8524F4E7000000C0004000C4004070B54E4CA515661559
:200C0000AB05A04260D1402945D016DC082938D00ADC01292BD002292ED0042903D1186AB1
:200C200062F31540186270BD10292FD02029FAD1586A62F30D20586270BDB1F5806F39D04E
:200C40000ADC80292CD0A9422FD0B142F4D1986A62F30D20986270BDB1F5006F2FD0B1F502
:200C6000805FF8D1D86A62F30500D86270BD186A62F30500186270BD186A62F30D201862C8
:200C800070BD186A62F31D60186270BD586A62F30500586270BD586A62F31540586270BDD6
:200CA000586A62F31D60586270BD986A62F30500986270BD986A62F31540986270BD986A61
:200CC00062F31D60986270BD1B4CA042FBD1402920D00ADC082913D0102916D02029F2D188
:200CE000D86A62F31D60D86270BD802917D0A9421AD0B142F8D1186B62F31D60186370BD5B
:200D0000D86A62F30D20D86270BDD86A62F31540D86270BD186B62F30500186370BD186B4D
:200D200062F30D20186370BD186B62F31540186370BD000000C0004000C4004083699BB277
:200D4000002A03D0012A02D10B4300E08B43816963F30F01816170470148806B70470000C8
:200D600000001040024A516960F3CC215161704700001040024A116860F30E3111607047A5
:200D80009C001040024A116860F3C501116070479C001040024A116860F34B2111607047C9
:200DA0009C001040024AD16F60F3CF31D167704700001040024A516960F30921516170473D
:200DC00000001040024A516960F31E615161704700001040024A516960F31551516170470A
:200DE00000001040024A516960F31241516170470000104010B5002001F001F8BDE810407A
:200E0000012000F0FCBF000070B505460C46012000F0EEFF2646084C54F8F00F66F30700DB
:200E20002060002000F03AFE002144F8C41C2846BDE8704000F01ABE000020402DE9F04379
:200E4000054685B0984617460E460024102000F00DFE002000F012FE00200321CDE9011009
:200E600003900490034602460721009000F0E4FD701E80B2DFF86090C9F80400012000F0D4
:200E8000FDFD012000F00AFE484603E017F8011B0166641C4445F9D3816AC1F3800100291E
:200EA000FAD0002208E0816AC1F3C0010029FAD0016E05F8011B521CB242F4D3816A11F06E
:200EC000010FFBD1002000F0E9FD05B00420BDE8F04300F0CBBD0000000020402DE9F04170
:200EE000044686B0984617460D46102000F0BEFD002000F0C3FD00200321CDE9011003909B
:200F00000490034602461F21009000F095FD681E80B21A4E7060012000F0B0FD012000F09B
:200F2000BDFD404667F31F603066B06AC0F380000028FAD0002011E0B16AC1F3C0010029F9
:200F4000FAD0326E110E04F8011B110C04F8011B110A04F8021B401C04F8012CA842EBD35A
:200F6000B06A10F0010FFBD1002000F097FD06B00420BDE8F04100F079BD000000002040A1
:200F800030B5044685B00D46102000F06FFD002000F074FD00200121CDE90110039004905D
:200FA000034602460721009000F046FD012000F075FD012000F062FD0E4807E014F8011B5D
:200FC0000166816AC1F34002002AFAD06D1EF5D2816AC1F380010029FAD0816A11F0010F74
:200FE000FBD1002000F05AFD05B00420BDE8304000F03CBD0000204070B504460D460020A5
:201000001049621806D0B2F5805F06D0B2F5005F08D105E0FFF7B2FB04E0FFF7AFFB01E0FF
:20102000FFF7ACFB2168C1F3C03119B12909B0FBF1F002E0E908B0FBF1F0E16860F312014F
:20104000E16070BD00E0FFBF026861F3000202607047C069084201D00120704700207047B8
:2010600038B504460D462348201806D0B0F5805F07D0B0F5005F0BD107E0012000F0C6FE76
:2010800006E0012000F0C9FE02E0012000F0CCFE0020009003E000BF0098401C0090009867
:2010A0001428F8DB2879216860F31C712160A87A216860F3CF3121602889022814D0012037
:2010C000216860F38A212160287A216860F349212160A879616860F30D316160204629686C
:2010E000BDE83840FFF788BF0020216860F38A212160EEE700E0FFBFB1F5807F1DD00CDC81
:2011000020291AD004DC012913D0102914D114E0402912D080290FD10FE0B1F5806F08D06D
:20112000B1F5805F09D0B1F5804F06D0B1F5800F02D182688A438260704702688A43026015
:201140007047B1F5807F1DD00CDC20291AD004DC012913D0102914D114E0402912D0802938
:201160000FD10FE0B1F5806F08D0B1F5805F09D0B1F5804F06D0B1F5800F02D182680A434B
:201180008260704702680A430260704702460020802922D00BDC10291FD003DCE9B1012931
:2011A0001AD115E0202918D0402915D115E0B1F5805F12D006DCB1F5807F0ED0B1F5806F79
:2011C0000AD105E0B1F5804F07D0B1F5800F03D19068084208D0012070471068084201D075
:2011E000012070470020704700207047406A80B27047026861F382020260704781627047E1
:20120000026861F3C30202607047000070B50446FFF7F0FD074A4FF480010025C2F80011DB
:201220001160BFF34F8FBFF36F8FE06900F004FEE56170BD80E100E070B50446E161134901
:20124000114D0D604A600020088102228A814881091D2846FFF704FF01212846FFF7C9FF9D
:2012600001212846FFF7CCFF01212846FFF7ECFE20212846FFF765FF054968020860E0693B
:20128000BDE8704000F0EABD002000401C28002000E100E010B540690068FFF7ADFE012045
:2012A00010BD007E70472DE9F041044611E0E069001DFFF7B3F9064665694FF080773946D3
:2012C0002868FFF7C6FE0128F9D031462868FFF795FFE069001DFFF77EF90028E7D0BDE8EA
:2012E000F08100002DE9F84307460C4600260020009000F073FB80466CB107F580772068FB
:2013000001280AD002280AD003280AD004280AD01420BDE8F8830120FBE7A56804E0E56826
:2013200002E0256900E06569684600F090F80CE0D8F8043080222249384698478022204904
:20134000684600F08AF88037761CB6EBD51FEFD305F07F05D8F804302A4619493846984721
:201360002A461749684600F078F8684600F06CF82168012907D002290CD0032911D00429C2
:2013800016D01420C5E7A169814201D10020C0E71720BEE7E169814201D10020B9E717206F
:2013A000B7E7216A814201D10020B2E71720B0E7616A814201D10020ABE71720A9E700000F
:2013C000903B00207FB505460E4600F007FB044625B1012D02D0012004B070BD694628461E
:2013E00000F03EF8012801D01520F5E7636801984FF48072314698470020EDE710B50446CA
:20140000FC21204600F026F8D4F8FC10884201D1002010BD162010BD10B5044600F0A0F93F
:201420000120FFF7F9FA0020FFF74EF904F18050011D026882F308880C680323A44602224B
:20144000BDE810400121604745F2E501084745F2EF01084745F2F902104745F22D1318478D
:201460002DE9F04106460C46002C15D000254FF480572246102105F5C040FFF719FB206812
:20148000B0420DD10C212046FFF7E4FFE168884204D10120BDE8F0810020FBE70020F9E7EF
:2014A00028B9606818B9A06808B9E06820B11035BD42DED30020EDE70020EBE70422014688
:2014C000142000F023B8000010B50B4C206010220A49042000F01AF858B14FF44051206861
:2014E00000F08EF90A22BDE8104005A1042000F065B8002010BD00001825002024000120EE
:201500005B56657220312E305D0000002DE9F0410546884617464FF0FF34E819B0F5805F83
:2015200002D92046BDE8F08100F076F9174EA0F52541A53918D000F06FF9A0F5B4415A395A
:201540001AD0306800F5805000F05CF91049884208D130684246284400F58050394600F043
:201560006BF900242046DDE7306842462844394600F062F90024F5E730684246284400F5E2
:201580008050394600F058F90024EBE7182500204E56445301B582B00020019001A8FFF7F5
:2015A0008DFF28B9DDE90101884201D100200EBD042202A9142000F001F80EBD2DE9F84F59
:2015C00006468B4692464FF0FF300021009106EB0A044FF48058444553D800F01DF94AF2E6
:2015E000A5594C4F48454ED13868414600F5805000F006F9386800F5805000F01FF9042535
:2016000012E038686A462844012100F015F99DF80000FF2807D038686A46284400F58050E8
:20162000012100F023F96D1CB542EAD338685A46304400F58050514600F018F9444513D3BF
:2016400014E038686A462044012100F0F5F89DF80000FF2807D038686A46204400F58050D7
:20166000012100F003F9641C4445EAD33868414600F5005000F0C4F845F65A2000F0E8F8F9
:201680000020BDE8F88F4146386800F0B9F8386800F0D4F8042512E038686A46284400F50E
:2016A0008050012100F0C8F89DF80000FF2805D038686A462844012100F0D8F86D1CB542D9
:2016C000EAD338685A463044514600F0CFF8444513D314E038686A46204400F5805001214D
:2016E00000F0AAF89DF80000FF2805D038686A462044012100F0BAF8641C4445EAD33868E9
:20170000414600F5005000F07BF8484600F0A0F80020B6E7182500207FB500244FF48055FA
:201720006A46102104F5C040FFF7C2F9009828B9019818B9029808B9039848B10C21684671
:20174000FFF788FE0399884204D0002004B070BD0120FBE71034AC42E2D30020F6E70000EB
:20176000014800F027BA00003828002000234FF4E1321946014800F04DBA00003828002037
:2017800088B0FEF73DFE1B4C002204212046FFF701FA002208212046FFF7FCF900F0DCFA7A
:2017A00062B6FFF7E3FFFFF7C8F8FFF7CDF9FEF77BFFFFF7B1FF04A90320FFF751FE059800
:2017C000FFF782FE00F00EF9FFF7C6FA0A49884205D169460120FFF743FE012803D00748A1
:2017E00000F078F8FEE7019800F58070FFF714FEFEE7000000C00040BEBEAEAE1914002014
:20180000FFF726B808B5002100916A46042100F013F8009808BD000008B50020009005489E
:201820006A460221006800F5005000F005F8BDF8000008BD18250020FFF73AB908B5034972
:2018400000916A46042100F011F808BD4E56445308B5009004486A460221006800F5005010
:2018600000F004F808BD000018250020FFF798B82DE9F04707460E4600254FEA1238C2F3C9
:201880000B0A00F0ABF804464FF480590EE063684A460F493046984723684A460C49384656
:2018A000984706F5805607F580576D1C4545EED3BAF1000F09D06368524605493046984738
:2018C000236852460249384698470020BDE8F08770290020F8B5064600F080F804464FF05E
:2018E000FF3000903A490020FFF7BAFD012801D00C20F8BD216968468847354D01280AD171
:201900000098411C07D001280BD0686800F58070B0470020F8BD686800F58070B0470020AA
:20192000F8BD2C4A2A49002000F0B6FA78B12A4A012002F5887100F0AFFA0028F0D1D5E95B
:201940000101A2689047304600F0B0F8F8BD224A012002F5887100F09FFA071E05D0686811
:2019600000F58070B0473846F8BD1B484179027901EB022217494B790F7903EB07239A4210
:201980000FD18A6883689A4219D189698069814215D103200090E1688847012809D00A2049
:2019A000F8BDD5E90101A2689047304600F07EF8F8BD686800F58070B0470020F8BDD5E901
:2019C0000101A2689047304600F070F8F8BD0000703B002070390020703A00200048704744
:2019E000103C002007480649416007490160074981600749C1600749016100207047000060
:201A000067070020103C0020710700205D070020291A0020191A002010B5FFF74FFD08B13A
:201A2000002010BD012010BD10B5FFF7B3FD08B1002010BD012010BDF0B505AC94E8F010FA
:201A4000400540EA014040EA023040EAC32040EA842040EA052040EAC610034940EA871043
:201A600040EA0C100860F0BD0000204002494A6960F30F024A6170470000204002490A69C9
:201A800060F300020A6170470000204002498A6860F300028A6070470000204002498A689F
:201AA00060F300028A607047000020402DE9F0470546FFF793FF04463B4F4FF4807207F5AB
:201AC0008878386807F58076012808D002282AD003285BD0042859D01420BDE8F0872368C9
:201AE000706831499847706800F58070D8F8041001F58071BA68FFF7BBFE0028EDD12B4A01
:201B000002F5007100F0C8F90028E6D10320E1688847012801D00A20DFE7706800F58070EB
:201B2000A8470020D9E720499146A1F59050FEF771FBDFF87CA00120CAF80000FC21504636
:201B4000FFF788FCCAF8FC00236870684A4651469847D8F8040000F58070F96800F028FCB6
:201B60000028BAD1114A02F5007100F095F90028B3D10320E1688847012801D00A20ACE7D3
:201B8000706800F58070A8470020A6E70748BA790179914205D14079F979884201D11F2041
:201BA0009BE71E2099E70000703A0020703900207028002010B50446204600F017F8606B5B
:201BC000016849688847204600F064F80021064A52F82130A34203D1002042F8210010BD5D
:201BE000491C0329F4DB10BD2C28002010B50446201DFEF7F0FC0028FAD0606B0168C968C0
:201C000088470028F4D110BD014901EB40107047DC2400202DE9F04104460D4616461F4639
:201C200038212046FEF70FFB3B46324629462046BDE8F041AFF3008070B504460846164607
:201C40001D46124941F82040012161702070FFF7DBFF60630DB1256301E00D492163C268EC
:201C60004168201DFEF7B0FC606B0269816804F11400FEF7A9FC606B324601680B68214695
:201C800098470020E062204670BD00002C280020B51C002010B50446204600F005F8204643
:201CA000BDE8104000F003B81430FEF783BC001DFEF780BC7047000070B5254D20212846C1
:201CC000FFF7C7F9D0B120212846FFF75FFAA8B1204C02E0E069FFF7E7FFE0691430FEF781
:201CE00082FC0028F6D12846FFF780FAC1B2E0691430FEF7B4FCE069006B8047802128466A
:201D0000FFF7A7F9002811D080212846FFF73EFA00280BD00F4CE069001DFEF75CFC30B1F5
:201D200080212846FFF7E8F90020207670BDE069001DFEF773FC01462846FFF75FFA4FF0CD
:201D4000807421462846FFF784F90128F9D070BD00200040DC24002010B50C4908684FF6D9
:201D6000FF0210400A4A40F48060104308600121881EFEF7A2FB04211620FEF79EFB042187
:201D8000BDE810401720FEF798BB00000CED00E00000FA0502490A6960F300020A617047C2
:201DA0000000104002494A6860F303024A6070470000104002490A6860F300020A6070479A
:201DC0000000104002490A6F60F304020A677047000010404FF080414A6860F303024A606A
:201DE00070474FF080410A6860F300020A6070474FF080418A6960F345128A6170474FF0C6
:201E000080414A6960F38A224A6170474FF080410A6960F38A220A6170474FF080410A69E6
:201E200060F3CB220A6170474FF080410A6960F30C320A617047000010B5074C00224FF49D
:201E400080712046FEF7A6FE002261152046BDE81040FEF79FBE000000C4004070B50D4DCA
:201E60004FF48074032221462846FEF7C5FE0222160231462846FEF7BFFE012221462846AE
:201E8000FEF788FE31462846BDE870400122FEF781BE000000C4004070B506460C46154614
:201EA00021463046FFF7DCFA012801D00C2070BD29463046FFF786FA0028F8D12846FFF776
:201EC0009DFA0028F3D129466068FFF70BFA0028EDD170BD2DE9FF4F95B0804654301290A5
:201EE0001C2241460BA8FEF795F9D8F84860D8F84C000A90D8F82C90D8F830000990D8F8C4
:201F000034000890D8F838000790002598F84400012101FA00F0401E069098F840008140CB
:201F2000491E0591D8F83C000490D8F850B0D8F828000390D8F81C000290D8F82070D8F8FB
:201F40002440BBF1FF3F294617D118980160002019B0BDE8F08FA4EB0900B84200D33844DD
:201F6000029A105C1055169B2A466D1C9854641CBC4200D10024ABF1010BBBF1000F02DDA9
:201F800017988542E7D334B10298204410F801AC1898016033E10298384410F801ACF7E7AB
:201FA000039806992844149008400190109808B11098CDE7119810B14FF0FF30C8E7129810
:201FC00000EB4611019801EB40000BA91390FEF759F9A8B101200A9012980BA900EB460AAF
:201FE0000AF5C070FEF74EF9012846D00898079009980890CDF82490072E72DA072693E02D
:2020000005991498084004998840C1F108012AFA01FA504400EB4001129800EB412303F63D
:202020006C63042E01DA002604E00A2E01DAF61E00E0B61F0A9870B1A4EB0900B84200D3B6
:20204000384402990A5C0BA9184600F00FFA824600200A9004E00BA9184600F0F8F98246D7
:20206000169928466D1C01F800A0029800F804A0641CBC4200D10024C1E00AF5CC700BA9E8
:20208000FEF700F9F8B10AF5D8700BA9FEF7FAF840B30AF5E4700BA9FEF7F4F8E0B30798BA
:2020A0000899079109990891CDF82490814612980BA900F66820019A00F0A2F98346072E6C
:2020C0002FDA082671E013980BA900F5F070FEF7D9F80028EBD1149828B1072E06DA092651
:2020E00005E020E019E04FF0FF3031E70B26A4EB0900B84200D33844029911F800A002988C
:2021000000F804A0641CBC4200D10024169928466D1C01F800A072E001E00998C4E7089852
:20212000C0E70B2641E00A2612980BA900F26460019A00F065F98346BBF1040F01DA584678
:2021400000E0032012990BAA01EBC01000F558700621FEF7CFF8042825DB4FF0FF3101EB39
:20216000600100F0010909F1020909FA01F90E280BDA129A02EB4902A2EB400000F25E5096
:202180000BAAFEF725F948440DE0091F0BA8FEF7C8F809EB001912980BAA042100F2446047
:2021A000FEF716F9484400F10109B9F1000F05D01498484505D24FF0FF30C9E64FF0FF3B60
:2021C00021E00BF1020BA4EB0900B84200D33844029911F800A0029800F804A0641CBC421C
:2021E00000D10024169928466D1C01F800A0ABF1010BBBF1000F02DD17988542E3D317988E
:202200008542FFF4CDAE1C220BA94046FEF702F8C8F8244003982844C8F82800C8F82C9093
:202220000998C8F830000898C8F834000798C8F83800C8F848600A98C8F84C00C8F850B00C
:2022400018980560002083E62DE9F74F86B00E4600240027059700250168039101798DF8F2
:202260001010401D002110F8012BCB009A401444491C0429F7DB611C08D0002110F8012B81
:202280003AB16FF0030009B0BDE8F08F6FF00200F9E7491C0429F1DB9DF80C00E12802D3F6
:2022A0006FF00400EFE7009704E00099491C00912D38C0B22D28F8D2019704E00199491C6A
:2022C00001910938C0B20928F8D20290002003A90A18C30052789A401544401C0428F7DB24
:2022E000DFF8C0A04FF400416FF0010B8D4201D95846C8E75046FDF7A6FFDFF8AC80DDE9CA
:20230000011008444FF4407909FA00F909F236794FEA490054304FF48041884201D3584678
:20232000B1E74046FDF78FFF404608F15402C0F81CA00562476287620121816341630163AD
:20234000C1620299C16301990164009941648764C764076500214FF4806702E022F8117014
:20236000491C4945FAD30899FEF700F8002514E0DFF83890621BBA4200D93A4605AB494646
:202380004046FFF7A7FD00288CD1059A3AB1336849462846984705980544A542E8D30020EF
:2023A00071E70000247C0020243C002024FC002010B586B00446002000900190029003909A
:2023C000FFF70CFB0B4905910B49049143680D22694620469847094801680D31016004AA58
:2023E00005A96846FFF730FF10B10D2006B010BD0020FBE77D0500202905002010250020A4
:2024000070B505460E46144631462846FDF73AFF05EB041460B13146A81CFDF733FF70B1F1
:202420003246082105F50170FDF764FF103070BD201D3246BDE870400321FDF75BBF04F597
:20244000827032460321FDF755FF083070BD70B505460E46012405EB44003146FDF712FFA8
:2024600040EA4404FF2CF6DDE0B270BD2DE9F0410746884615460124EE096806050E701C47
:2024800007EB402000EB44004146FDF7FBFE40EA4404864207D109E007EB44004146FDF79B
:2024A000F1FE40EA4404FF2CF6DD01E0FF2CE3DDE0B2BDE8F0810000391200200D1200209F
:2024C000A7120020A3120020951200201C2500201C2500201CF30000EA040020B8240020AC
:2024E0001C2500201C26002000010000000200001C280020000000000000000000000000B2
:20250000000000000000000000000000005A6202000000000000000000000000FFFFFFFF01
:20252000FFFFFFFFFFFFFFFFFFFFFFFFFFFFFFFFFFFFFFFFFFFFFFFFFFFFFFFFFFFFFFFFBB
:20254000FFFFFFFFFFFFFFFFFFFFFFFFFFFFFFFFFFFFFFFFFFFFFFFFFFFFFFFFFFFFFFFF9B
:20256000FFFFFFFFFFFFFFFFFFFFFFFFFFFFFFFFFFFFFFFFFFFFFFFFFFFFFFFFFFFFFFFF7B
:20258000FFFFFFFFFFFFFFFFFFFFFFFFFFFFFFFFFFFFFFFFFFFFFFFFFFFFFFFFFFFFFFFF5B
:20600000000000000070000000C01200D7F0E67E010000000030130000A00A008DEAC6EEFA
:206020000300000000D01D00003000000FE3AB3C0200000000001E0000400000DBB6A8DEF0
:206040000500000000401E0000C00100EC0015160000000000000000000000000000000005
:20606000FFFFFFFFFFFFFFFFFFFFFFFFFFFFFFFFFFFFFFFFFFFFFFFFFFFFFFFFFFFFFFFF40
:20608000FFFFFFFFFFFFFFFFFFFFFFFFFFFFFFFFFFFFFFFFFFFFFFFFFFFFFFFFFFFFFFFF20
:2060A000FFFFFFFFFFFFFFFFFFFFFFFFFFFFFFFFFFFFFFFFFFFFFFFFFFFFFFFFFFFFFFFF00
:2060C000FFFFFFFFFFFFFFFFFFFFFFFFFFFFFFFFFFFFFFFFFFFFFFFFFFFFFFFFFFFFFFFFE0
:207000000100000000010000B0DB0400000000000000000000000000EE5AC1E500000000F1
:20702000000000000000000000000000000000000000000000000000000000000000000050
:20704000000000000000000000000000000000000000000000000000000000000000000030
:20706000000000000000000000000000000000000000000000000000000000000000000010
:207080000000000000000000000000000000000000000000000000000000000000000000F0
:2070A0000000000000000000000000000000000000000000000000000000000000000000D0
:2070C0000000000000000000000000000000000000000000000000000000000000000000B0
:2070E0000000000000000000000000000000000000000000000000000000000017EFCAE7D9
:20710000E80D0020C9720010ED710010F3710010F9710010FF7100100572001000000000AC
:20712000000000000000000000000000117200100B72001000000000657200101D9A001081
:20714000E3720010E3720010E3720010E37200109F8B0010E3720010E3720010E372001032
:20716000E3720010E3720010E3720010E3720010E3720010E3720010E3720010E3720010E7
:20718000E3720010E3720010E3720010E3720010E3720010E3720010C59A0010C99A0010AF
:2071A000CD9A0010E3720010E3720010E3720010E3720010E3720010E3720010E372001095
:2071C000E3720010959A0010E3720010E3720010E3720010E3720010DFF80CD000F0B6FF1F
:2071E00000480047ADBD0210E80D002070466946FEE770466946FEE770466946FEE77046DB
:207200006946FEE770466946FEE770466946FEE72A4B19680868B0E8F04F80F30988BFF353
:207220006F8F4FF0000080F3118870470000000006480068006880F3088862B661B6BFF34C
:207240004F8FBFF36F8F00DF00BF00BF08ED00E0DFF80C00016841F470010160704700BFA5
:2072600088ED00E0EFF30980BFF36F8F134B1A681EF0100F08BF20ED108A20E9F04F10606B
:2072800008B44FF0200080F31188BFF34F8FBFF36F8F46F0B3FD4FF0000080F3118808BC92
:2072A00019680868B0E8F04F1EF0100F08BFB0EC108A80F30988BFF36F8F7047F00E002053
:2072C000EFF3058070470000064CA047064C2047FEE7FEE7FEE7FEE7FEE7FEE7FEE7FEE776
:2072E000FEE7FEE7499A0010D9710010002070472DE9F05F0546002092469B4688460646FD
:20730000814640241BE0284641464746224600F040F953465A46C01A914110D311461846B7
:20732000224600F027F92D1A67EB01084F4622460120002100F01EF917EB00094E41201E15
:20734000A4F10104DFDC484631462A464346BDE8F09F0000004870477C2D051010B50446DA
:20736000FFF7F8FF0068005D00F0010010BDA0F16101192900D820387047A0F1410119296C
:2073800000D82030704710B5431A934209D28318881803E010F8011D03F8011D521EF9D2A4
:2073A00010BD40EA01039B0703D009E008C9121F08C0042AFAD203E011F8013B00F8013B54
:2073C000521EF9D210BDD2B201E000F8012B491EFBD270470022F6E710B513460A4604467A
:2073E0001946FFF7F0FF204610BD30B505462A460B4612F8010B13F8014B08B1A042F8D055
:207400001CB1002802D06D1CF1E7284630BD10B5044604E00B7800F8013B03B1491C521EB6
:20742000F8D2204610BDCAB2401E10F8011F8A4202D00029F9D100207047421C10F8011B63
:207440000029FBD1801A704710B5002200E0521C835C8C5CA34201D1002BF8D1D8B2E1B222
:20746000401A10BD30B504460020034600E05B1C934203D2E05CCD5C401BF8D030BD03468E
:2074800011F8012B00F8012B002AF9D1184670472DE9F0410E460546002400E0641C285D9B
:2074A000FFF76BFF0746305DFFF767FF381A02D1295D0029F2D1BDE8F081000000B58DB097
:2074C000099000920B904FF0FF300A9000200C9004480690044807906A4609A800F0E0FB31
:2074E0000DB000BDBD7C0010DB7C001070B5064602F0A8FB046805460A220021304600F0F2
:20750000FDFB2C6070BD30B4044696230800214604D0B62330BC002200F031BC2046002145
:20752000F8E700F0004230F000400AD0C10D01F56071C0F3160042EA0151C20840071143BF
:20754000704700200146704730B50B46014600202022012409E021FA02F59D4205D303FAA3
:2075600002F5491B04FA02F52844151EA2F10102F1DC30BD202A04DB203A00FA02F100203C
:2075800070479140C2F1200320FA03F3194390407047202A04DB203A21FA02F00021704732
:2075A00021FA02F3D040C2F1200291400843194670472DE9FF4F1C4681B00021D4E9016767
:2075C00091464FF0FF358A468846A1696D1C02988847216A834688470028F6D1BBF1FF3FCB
:2075E0000CD026F4C066002F1ADD700615D5BBF12B0F0AD0BBF12D0F0FD104E04FF0FF300F
:2076000005B0BDE8F08F46F48066A1696D1C029888477F1E8346002F02DDBBF1300F03D043
:20762000B9F1000F2AD025E0A1696D1C46F400767F1E029888478346002F05DDBBF1780F3C
:2076400006D0BBF1580F03D0B9F1000F10D011E0B9F1000F02D0B9F1100F0BD1A1696D1C21
:2076600026F400767F1E029888478346102000E0082081464FEAE970009017E00A20F8E78A
:207680004346AAFB092803FB0980DDF800C07F1E0AFB0C0112EB0B0A41EBEB78A16946F4DB
:2076A000007605F10105029888478346002F06DD4946584600F06EFD5FEA000BE0D5E16939
:2076C00002988847B00502D46FF0010098E7F00718D1700610D57005514605D50023D1EBD7
:2076E000030163EB080200E042462068031D23600068C0E9001205E02068011D2160006804
:20770000C0E900A828467BE72DE9FF5F1D464FF0FF3BD5E9014691465F464FF00008A9691E
:207720007F1C01988847296A824688470028F6D1BAF1FF3F0CD024F4C064002E19DD6006A2
:2077400014D5BAF12B0F09D0BAF12D0F0ED103E0584604B0BDE8F09F44F48064A9697F1C8A
:2077600001988847761E8246002E02DDBAF1300F03D0B9F1000F26D032E0A969761E44F4DC
:2077800000747F1C019888478246002E05DDBAF1780F06D0BAF1580F03D0B9F1000F10D014
:2077A0001EE0B9F1000F02D0B9F1100F18D1A969761E24F400747F1C019888478246102061
:2077C00002E0082000E00A20814609E008FB0908A969761E44F400747F1C019888478246B4
:2077E000002E05DD4946504600F0D4FC0028EDDAE96901988847A00502D46FF00100A8E781
:20780000E00725D1600613D5600502D5C8F1000000E0404629680A1D2A600968220501D532
:20782000087015E0220701D5088011E008600FE02868011D29600068210502D580F8008078
:2078400006E0210702D5A0F8008001E0C0F8008038467EE72DE9FF5FD2E901A74FF0000811
:20786000916999461446DDF838B0464601988847054659EA0B0005D009E0A169761C019898
:2078800088470546216A284688470028F5D1681C03D05FEACA7005D015E04FF0FF3004B052
:2078A000BDE8F09F2068011D2160D0F800800AE05FEACA7001D108F8015BA169761C7F1E51
:2078C000019888470546002F1ADD681C18D0B9F1000F0DD0E81705EBD060421120F01F002C
:2078E00059F822102A1A012090400142E0D107E0BBF1000FDCD1216A284688470028D7D0F6
:20790000E16901988847BBF1000F07D1002E05DD5FEACA7002D1002188F80010A068B84209
:2079200003DDBBF1000F03D017B16FF00100B6E73046B4E72DE9FF4F087883B09946FF28E6
:2079400005D0491C2D2804D00024002008E000200BE00124F9E700EB800003EB4000491C8A
:207960000B78FF2BF7D104B1404200230293147819461D462D2C01D02B2C04D1521C2D2C38
:2079800013D000240294AA461478FF2C0FD00A25A3FB057801FB05814FF0000C03FB0C1192
:2079A000521CE3194AEB0101EEE70124EAE7814453EA010002D019F5C87F06DA0398002195
:2079C000C0E9001107B0BDE8F08F0025AE4E2F46DFF8B882184600F02DFECDE90001B9F191
:2079E000000002DAC9F1000400E004460023A74A1AEB030B42EB045A12E0E00707D02A46F1
:207A000033463846414600F08FFA074688462A4633461046194600F087FA05460E46641032
:207A2000002CEAD1DDE90001B9F1000F5A46534606DA00F0EBFA3A46434600F0E7FA05E032
:207A400000F072FA3A46434600F06EFA029A0AB181F00041039AC2E90001B3E72DE9FF4F19
:207A60001F468DB0D7E901464FF0FF382E2045464FF000090B90B9696D1C0E988847396A68
:207A8000824688470028F6D1BAF1FF3F0AD024F4D064002E11DDBAF12B0F08D0BAF12D0F91
:207AA0000BD102E0404611B08DE744F48064B9696D1C0E9888478246761E6946600501D5CB
:207AC0002D2000E02B208DF8000001F1010B0DF1200809E0B9696D1C0E98884782460F980D
:207AE00044F40074761E0560002E02DDBAF1300FF0D00B998A453ED144F0800406E00F9962
:207B0000681CA9F1010944F400740860B9696D1C761E0E98884782463028F0D02BE00B99E6
:207B20008A4505D1200603D444F08004761E18E0504602F08BF908B30DF11301761E44F4BA
:207B400000748B4508D2AAF130000BF8010B200607D5A9F1010003E0200602D409F10100B6
:207B60008146A00502D50F99681C0860B9696D1C0E9888478246002ED1DC53E0002E51DDDC
:207B8000BAF1650F02D0BAF1450F4BD1A00549D5B9696D1C24F44074761E0E9888478246CE
:207BA000002E0CDD2B2804D0BAF12D0F07D144F48074B9696D1C0E9888478246761EE0053B
:207BC00001D52D2100E02B2108F8011BCDF82C8021E00DF12901761E44F4007488450CD2B4
:207BE000AAF1300010F0FF0088F8000002D10B99884509D908F1010806E0E00501D5244806
:207C000001E042F20F708146B9696D1C0E98884782460F980560002E04DD504602F016F96F
:207C20000028D6D1F9690E988847FF208BF8000088F800000020069007904B466A4608A93D
:207C400006A8FFF777FEA00502D46FF001002AE714F0240F0AD0E00714D1DDE906123868C4
:207C6000031D3B600068C0E900120BE0DDE9060100F0ECFC0146E00704D13868021D3A603A
:207C80000068016028460EE7000014400000F03FF1D8FFFF026811441378016018467047AE
:207CA000D160044951610449116200211161114600F07EBA957C00105D730010426842B124
:207CC000016811F8013B23B1521EC0E90012184670470121C160881E704742685AB1C36862
:207CE000016843B983688B4205D0491E521CC0E90012002070474FF0FF3070472DE9F047B9
:207D000091460F4680460446002614F8015B2DB1FFF720FB0068405DC007F6D12B2D02D0ED
:207D20002D2D18D0641E4A463946204600F0D6FB27B13968A14201D1C7F8008071054FF027
:207D400002040BD54042002803DD01F07BFF0460A007BDE8F08746F48066E4E70028F8DA3C
:207D600001F070FF04606FF00040F2E70029A8BF7047401C490008BF20F00100704710B488
:207D8000B0FA80FC00FA0CF050EA010404BF10BC704749B1CCF1200421FA04F411FA0CF14C
:207DA00018BF012121430843A3EB0C01CB1D4FEA00614FEA102042BF002010BC704700EB06
:207DC000C35010440029A4BF10BC7047401C490008BF20F0010010BC70472DE9FE4F804604
:207DE00081EA0300C00F0C46009021F0004123F00045B8EB0200A94105D240462146904691
:207E00001C460B46024623F00040104347D0270DC7F30A00C3F30A510290401A01904028BC
:207E20006BDAC3F3130040F4801B0098924620B10023D2EB030A63EB0B0B01985946C0F1EA
:207E400040025046FFF796FB06460D4650465946019A00F08DF910EB08006141002487EAA4
:207E6000115284EAE7731A4340D0009A62B3019A012A4FEA075215DC001B61EB02014FF0C9
:207E8000004202EA0752CDE90042001C41F5801132462B4600F080FB03B0BDE8F08F4046CF
:207EA0002146F9E7001B61EB0201001C41F5801300185B412018A2F5001747EB030140EA32
:207EC000D570B6196D4111E06D084FEA360645EAC0754FEA0752001B61EB0201001C41F553
:207EE000801149084FEA30000019514132462B4603B0BDE8F04F00F040BB00980122400026
:207F00000023D0EB020263EBE073009821464FEAE074B8EB000061EB0401E9E783F00043D8
:207F20005BE781F0004158E72DE9FE4F81EA030404F0004421F0004100944FF0000B23F0BE
:207F4000004350EA01045ED052EA03045BD0C3F30A54C1F30A552C44A4F2F3340194A0FB7F
:207F60000254C1F3130141F48011C3F3130343F4801301FB024400FB034E840A970A44EA9C
:207F8000815447EA8357A4FB076802958D0A05FB07854FEA932C04FB0C542705029D4FEADE
:207FA000065847EA1637B5EB08056EEB070C870E920E47EA811742EA8312A7FB0201B6EBC7
:207FC0000B0164EB00042B0D43EA0C335E1844EB1C50DA465146E7FB0201C5F313044FEAE9
:207FE0000B3343EA14534FEA0432019C43EA0603A4F10C040294009CCDE900B400F0CCFA76
:2080000003B0BDE8F08F00200146F9E72DE9F04D81EA030404F0004B21F0004514464FF04F
:20802000000A23F0004150EA050220D054EA01021DD0C5F30A570246C5F31303C1F313008D
:20804000C1F30A5640F4801543F48013A7EB0608101BD64608F2FD3873EB050002D308F132
:20806000010801E092185B41B8F1000F03DA00200146BDE8F08D00204FF4801106468446A8
:208080000EE0171B73EB050705D3121B63EB050306434CEA010C49084FEA300092185B416F
:2080A00050EA0107EDD152EA030012D082EA040083EA0501084305D0101BAB4106D201228A
:2080C000002306E000224FF0004302E06FF0010253101AEB06004CEB085110EB0A0041EB80
:2080E0000B01BDE8F04D00F048BAC1F30A52C1F3130140F2FF3341F480119A4202DA0020C6
:208100000146704740F233439A42A2F2334202DC5242FFF73EBAFFF72DBA000030B5041E90
:2081200071F1000404DB4FF00044404264EB0101141E73F1000405DB1C464FF000435242B2
:2081400063EB0403994208BF904230BD064C074D06E0E06840F0010394E8070098471034BB
:20816000AC42F6D3FFF73CF83C3B05108C3B0510202A06DBCB17203A41FA02F043EAE073A2
:2081800006E041FA02F3D040C2F1200291400843194670473A2800D2303820F02002412A79
:2081A00001D3A2F13700884201D34FF0FF3070472DE9F34F8BB04FF0000801F10C000C4634
:2081C0004FF0010B46460DF1080A01906269012101989047051E2DD0252D2CD0216A884702
:2081E000C0B16269012101989047216A88470028F7D1411E62690198904700E0761CA16951
:208200000B988847216A88470028F7D1E1690B988847DBE7A1690B9888470746A84201D19F
:20822000761CD3E7E1690B9888477F1C02D1B8F1000F6FD046E1002762693D46394601981D
:2082400090472A2804D162690121019890470125DFF884926269012101989047A0F1300191
:208260000A290AD24F45E5DC07EB870100EB4107303FDFD445F01005ECE7E90601D46FF08B
:2082800000476C280AD04C2814D0682815D06A280DD074281CD07A281AD01DE062690121EF
:2082A000019890476C2802D045F0040514E045F002050DE045F020050AE0626901210198C3
:2082C0009047682802D045F0080505E045F400656269012101989047C4E9015765283DD0A4
:2082E00019DC58287AD00CDC452837D004DC252826D0412831D131E046282FD047282CD1EB
:208300002CE05B2877D0612828D063287CD0642823D15AE0D0E06F2848D008DC66281DD0B7
:2083200067281BD0692821D06E2816D127E0702845D0732868D0752847D078280DD14DE0DE
:20834000A1690B988847054625283FF469AFE1690B9888476D1C3FF46AAFB3E023466A4681
:208360006FF001000B99FFF779FB9EE045F040006060A80723464FF0000236D43EE0E8076C
:208380007FF447AF2068011D21600068290501D506701BE7290701D5068017E7A90703D557
:2083A000F117C0E9006111E706600FE745F040006060A80723464FF0080216D41EE040F6A3
:2083C0000E0125EA0100606016E045F040006060A80723464FF00A0207D40FE045F04000F1
:2083E0006060A80708D5234610226FF001000B99FFF7DFF859E007E0234610226FF00100AA
:208400000B99FFF781F950E04FF000094F464B46632802D05B2806D040E0E80601D40120F0
:20842000A06001273AE062690121019890475E2805D14FF0010962694946019890472169A4
:2084400039B900210A46534643F82120491C0829FADBB0B3216969B9C11700EBD1625311D0
:208460000AEB830122F01F02821A01200B68904003430B6062690121019890475D28E8D104
:20848000B9F1000F09D00020514651F82020D24341F82020401C0828F7DB02AB2246009772
:2084A0006FF001000B99FFF7D5F900280CDA401C08D1BBF1000F05D04FF0FF300DB0BDE851
:2084C000F08FFFE74046F9E7E90701D108F1010806444FF0000B79E6CCCCCC0C2DE9F05F45
:2084E00082460078002715468B460AF10104B946302801D09DB113E014F8010B01277828A0
:2085000003D0582801D045B10AE00DB1102D07D10027102514F8010B02E0082500E00A25F2
:208520000026B0460EE005FB080005FB06F1012701EB10461FFA80F8B6F5803F00D3B946FB
:2085400014F8010B2946FFF725FE0028EBDABBF1000F05D00FB1641E00E05446CBF800403F
:20856000B9F1000F06D001F06DFB02210160C81EBDE8F09F48EA0640FAE710B5141E73F1C1
:20858000000408DA401C41F1000192185B411A4301D120F0010010BD2DE9F04D92469B4607
:2085A00011B1B1FA81F202E0B0FA80F220329046FEF7E0FF04460F4640EA0A0041EA0B01D7
:2085C00053465A46084313D0114653EA010019D0C8F140025046FEF7DCFF05460E46504620
:2085E00059464246FEF7C6FF084305D0012004E020463946BDE8F08D0020054346EAE07680
:208600002C4337430A986305E40AA0EB08000022FD0A44EA47540A3002D500200146E9E7AC
:20862000010510196941DDE9084500196941BDE8F04DA2E70EB540F2334202920022CDE94A
:2086400000221346FFF7A8FF03B000BD01F0004330B421F0004150EA010206D00A0DA2F567
:208660006072C1F31301002A02DC30BC00207047440F44EAC104C100E01830BC00EBC250AD
:20868000FFF774BB70B58C1810F8015B15F0070301D110F8013B2A1106D110F8012B03E03A
:2086A00010F8016B01F8016B5B1EF9D12B0705D40023521E0DD401F8013BFAE710F8013BC5
:2086C000CB1A921C03E013F8015B01F8015B521EF9D5A142D8D3002070BD40F2113CC2F21C
:2086E000000C604740F2E15CC2F2000C604740F2295CC2F2000C604740F2291CC2F2000C9C
:20870000604710B54FF4C0620D21002030F018FC44F651720621002030F012FC0022082149
:20872000104630F00DFC07F073FF01210B2007F076FF0021BDE810400B2007F070BF10B56C
:2087400046F65D720D21002030F0FAFB6F222821002030F0F5FB4CF644720621002030F042
:20876000EFFB0121FF2007F05AFF0221872007F056FF0021012007F052FFBDE810400620C3
:2087800030F0CCBA38B5C0F30904C1F309052A49087800281AD0012817D10121FF2007F076
:2087A0003EFF44EA0541242007F039FF0021FF2007F035FF6946052007F02FFF009840F069
:2087C00008010091052007F02AFF38BD012008700121FF2007F023FF69461C2007F01DFFD4
:2087E000009840F0400100911C2007F018FF44EA0541242007F013FF0021FF2007F00FFF8F
:208800000221122007F00BFF6946D32007F005FF009840F080010091D32007F000FF6946F3
:20882000052007F0FAFE009840F00B010091052007F0F5FE38BD0000BA23002010B50021D8
:20884000FF2007F0ECFE0021122007F0E8FE0021052007F0E4FE0021BDE81040D32007F0C9
:20886000DEBE000010B50021FF2007F0D8FE0949FA2007F0D4FE4FF09051FB2007F0CFFE56
:208880008021D32007F0CBFE0121BDE81040052007F0C5BECDCC0C0210B5012211460020C8
:2088A00030F04EFBBDE81040FFF7DCBF10B500220121104630F044FBBDE81040FFF7BEBFA3
:2088C00038B5C0F30A04C1F30A051D49487800281AD0012817D10121FF2007F0A0FE44EADA
:2088E0000541212007F09BFE0021FF2007F097FE6946052007F091FE009840F008010091D9
:20890000052007F08CFE38BD012048700121FF2007F085FE44EA0541212007F080FE0021DD
:20892000FF2007F07CFE6946052007F076FE009840F00B010091052007F071FE38BD000083
:20894000BA2300209FED1A0ADFED1A0A01290FD002290CD10068C0F38920410A1FD0A0F5D6
:20896000806000EE100AB8EEC00A20EE200A70470088C0F30900410A08D0A0F5806000EEE6
:20898000100AB8EEC00A20EE200A7047C0F3080000EE100AB8EE400A20EE200A7047C0F309
:2089A000080000EE100AB8EE400A20EE200A7047000000000000003B08214FF400420020BF
:2089C00030F0BEBA00220821104630F0B9BA00002DE9F0478AB004460126D4F8CC5104F1F5
:2089E0004A0808F1100805F1630795F8620095F8611000EB01201FFA80F994F8D40101289F
:208A000009D0022820D00026012E2BD000260AB03046BDE8F087202102A8FEF7DBFC05F1F4
:208A20003101102202A8FEF7AEFC1022414606A8FEF7A9FC3B464FF48072202102A8CDF822
:208A400000902EF0F9F9DFE7A9F108091FFA89F94FEAD9024146384603F08CFA0128D3D00C
:208A60000026D1E794F8E401022803D001285FD00026CCE700254FF0010AFF2653E0785DDD
:208A8000DD2802D0302840D048E03D4907EB050808F1020007F01CFA012805D098F8010053
:208AA000AD1C284485B23EE098F80500012835D178194178B4F8D801801D814201D2002640
:208AC000A5E798F8060000F0030084F8EA00032801D900269BE70FF09DFD04EB40108A30DC
:208AE000B4F8D82108F10801FEF74DFC0020D4F8CC2100F14101515C221882F84512401C71
:208B0000C0B20628F3D3012681E794F8E4217819514645F015FA48B14FF0000A7819AD1CC7
:208B20004078284485B24D45A9D370E700266EE7A879C0F3011084F8EA00032801D9002684
:208B400065E738B994F8D311012903D0052901D000265CE70FF05EFD04EB40108A30B4F804
:208B6000D8213946FEF70FFC00202918221891F8411082F84512401CC0B20628F5D346E746
:208B80005406022001207047C178027841EA026142788078120442EA002008437047002109
:208BA000084622F0EBBD411C02D00028FFD170474FF0FF307047411C02D00028FFD17047CC
:208BC0004FF0FF307047000010B500F007F8BDE81040014844F04CBEA44E01200548044993
:208BE0000160054A511A416000218160C1607047C8150220A44E0120009C04200148024979
:208C0000401A7047009C0420C815022000F030B907B501A900F082F90EBD00001CB50446F4
:208C2000204600F042F860B120680FA1CDE900101323104A10A1154801F03AF86FF0020073
:208C40001CBD012047F0DCFE206008B100201CBD0FA1CDE900101723064A07A10B4801F0EB
:208C600027F84FF0FF301CBD68616E646C652025700D0A00EF1705105B6F73204552525D98
:208C800020257328293A25642C200000259902106572722025700D0A000000000068002847
:208CA00001D001207047002070470068002801D001207047002070477CB504460D462046F0
:208CC000FFF7F3FF68B12846FFF76DFF024600231946206847F0C2FE01280FD04FF0FF3004
:208CE0007CBD206806A1CDE900103C23074A08A10C4800F0DDFF6FF002007CBD00207CBDDA
:208D000068616E646C652025700D0A000D1805105B6F73204552525D20257328293A256472
:208D20002C200000259902101CB504462046FFF7BCFF50B100231A461946206847F098FFAC
:208D400001280FD04FF0FF301CBD206806A1CDE900105223074A08A10C4800F0A9FF6FF015
:208D600002001CBD00201CBD68616E646C652025700D0A001A1805105B6F73204552525DFD
:208D800020257328293A25642C200000259902101CB5044608461146002247F03DFE206017
:208DA00008B100201CBD06A1CDE900101923074A07A10C4800F07CFF4FF0FF301CBD000059
:208DC0006572722025700D0A000000006F1805105B6F73204552525D20257328293A256473
:208DE0002C200000259902101CB50446204600F029F828B1206844F04FFE002020601CBD6A
:208E0000206806A1CDE900102823074A07A10C4800F04EFF6FF002001CBD000068616E64B3
:208E20006C652025700D0A007E1805105B6F73204552525D20257328293A25642C2000002F
:208E4000259902100068002801D001207047002070470068002801D0012070470020704722
:208E60000068002801D001207047002070470000FEB504460E4617462046FFF7E3FF4FF0B7
:208E8000FF3500280DD0EFF3058010B30020029002AA3146206848F04BF801280ED0284622
:208EA000FEBD206812A1CDE900108823134A14A1184800F0FDFE6FF00200FEBD0298A8B1DF
:208EC00015494FF080500860BFF34F8FBFF36F8F0CE03846FFF76FFE024600233146206846
:208EE00047F0BCFD012801D02846FEBD0020FEBD68616E646C652025700D0A00AE18051071
:208F00005B6F73204552525D20257328293A25642C2000002599021004ED00E0FEB50446F8
:208F20000E4617462046FFF78DFF4FF0FF3500280ED0EFF3058018B300200290002302AA6C
:208F40003146206847F046FF01280ED02846FEBD206813A1CDE900104123144A14A119488C
:208F600000F0A6FE6FF00200FEBD0298A8B116494FF080500860BFF34F8FBFF36F8F0CE04C
:208F80003846FFF718FE024600233146206847F06FFE012801D02846FEBD0020FEBD00003B
:208FA00068616E646C652025700D0A008D1805105B6F73204552525D20257328293A256450
:208FC0002C2000002599021004ED00E01CB50446104647F0F7FC206008B100201CBD06A130
:208FE000CDE900101C23074A07A10C4800F060FE4FF0FF301CBD00006572722025700D0A75
:2090000000000000D61805105B6F73204552525D20257328293A25642C20000025990210C2
:209020001CB5044603220021012047F0F5FC206008B100201CBD06A1CDE900103023074A43
:2090400007A10C4800F034FE4FF0FF301CBD00006572722025700D0A00000000E918051080
:209060005B6F73204552525D20257328293A25642C200000259902101CB50446204600F0F4
:2090800029F828B1206844F007FD002020601CBD206806A1CDE900103E23074A07A10C48FA
:2090A00000F006FE6FF002001CBD000068616E646C652025700D0A00021905105B6F7320BD
:2090C0004552525D20257328293A25642C200000259902100068002801D001207047002009
:2090E000704700003EB504462046FFF7F3FF4FF0FF3500280CD0EFF3058008B300200290E3
:2091000002A9206847F0C5FE01280ED028463EBD206811A1CDE900107923124A12A11748A8
:2091200000F0C6FD6FF002003EBD029890B114494FF080500860BFF34F8FBFF36F8F09E048
:2091400000231A461946206847F092FD012801D028463EBD00203EBD68616E646C652025B0
:20916000700D0A00261905105B6F73204552525D20257328293A25642C2000002599021089
:2091800004ED00E07FB505460C462846FFF7A2FF6FF00306002814D0EFF30580002833D022
:2091A000002C1BD02348CDE9010423A102460091582328A12C4800F07BFD6FF0040004B09E
:2091C00070BD286829A1CDE900105323194A21A1254800F06DFD6FF00200F0E700200390F5
:2091E00003AA0021286847F0A3FE012801D03046E5E70398D8B120494FF080500860BFF347
:209200004F8FBFF36F8F12E0601C02D024B1214603E04FF0FF3100E000210A46002319461F
:20922000286847F01BFC012801D03046C7E70020C5E70000151905102573282920696E2023
:209240004953522C2077616974202575206D730D0A0000005B6F73204552525D20257328CB
:20926000293A25642C2000002599021068616E646C652025700D0A0004ED00E07CB5044662
:209280001546DDE90602CDE90004C2F38F02284647F0D6FE01280CD007A1CDE90010262370
:2092A000084A09A10D4800F003FD00202060401E7CBD00207CBD000065727220256C640D72
:2092C0000A0000004F1905105B6F73204552525D20257328293A25642C200000259902107C
:2092E0007CB50446002C03D0256835B1012005E0002044F045FC00207CBD002050B147F035
:20930000CFFE02460026954210D12660002044F037FC14E00BA0CDE9000543230C4A0DA189
:20932000114800F0C5FC6FF002007CBD2B460FA10D4800F0BDFC284644F022FC2660002004
:209340007CBD000068616E646C652025700D0A005F1905105B6F73204552525D202573288C
:20936000293A25642C200000259902105B6F73205741524E5D207468726561642025702086
:2093800064656C6574652025700D0A0010B547F08DFE022801D0002010BD012010BD000031
:2093A000FEB504460E46204600F01AF94FF0FF35002819D0EFF3058000282DD00020029031
:2093C000009002AB32460921206848F02DF8012817D01DA1CDE90010CA231E4A1EA12348B6
:2093E00000F066FC2846FEBD206821A1CDE90010C323184A18A11D4800F05AFC6FF00200D5
:20940000FEBD0298E8B11D494FF080500860BFF34F8FBFF36F8F14E00520009000233246FD
:209420000421206848F000F801280AD006A1CDE90010D323074A08A10C4800F039FC284608
:20944000FEBD0020FEBD000065727220256C640D0A0000009B1905105B6F73204552525D95
:2094600020257328293A25642C2000002599021068616E646C652025700D0A0004ED00E0FB
:209480002DE9FC4705460A9F884616469946284600F0A6F868B128681CA1CDE900103323F8
:2094A0001D4A1EA1224800F003FC6FF00200BDE8FC8708202CF002FF044694B12660C4F88E
:2094C00004901C480090B8F1010F0DD000222346394619A047F068FF286038B16C600020B0
:2094E000E5E76FF00100E2E70122F0E713A1CDE900104423084A09A10D4800F0D9FB204621
:2095000044F04AFA4FF0FF30D1E7000068616E646C652025700D0A006F1905105B6F73207B
:209520004552525D20257328293A25642C20000025990210F19500100000000065727220FE
:2095400025700D0A000000007CB50446204600F047F8A8B14FF0FF35009500231A46052145
:20956000206847F061FF012817D010A1CDE900107F23114A11A1164800F09AFB28467CBD0C
:20958000206814A1CDE900107A230B4A0BA1104800F08EFB6FF002007CBD0025256060684D
:2095A00044F0FAF9656000207CBD000065727220256C640D0A0000007E1905105B6F7320E8
:2095C0004552525D20257328293A25642C2000002599021068616E646C652025700D0A0025
:2095E0000068002801D00120704700207047000010B52CF0C5FE28B1016819B14068BDE85E
:2096000010400847BDE8104001A10A4800F050BB5B6F73205741524E5D20496E76616C6952
:20962000642074696D65722063616C6C6261636B0D0A0000259902103EB504462046FFF7B8
:20964000CFFF4FF0FF35002819D0EFF3058000282DD000200290009002AB0022082120686A
:2096600047F0E2FE012817D01CA1CDE90010EC231D4A1EA1224800F01BFB28463EBD2068AA
:2096800020A1CDE90010E523174A18A11C4800F00FFB6FF002003EBD0298E0B11C494FF098
:2096A00080500860BFF34F8FBFF36F8F13E0009500231A460321206847F0B6FE01280AD08D
:2096C00006A1CDE90010F523074A08A10C4800F0EFFA28463EBD00203EBD000065727220F1
:2096E000256C640D0A000000B01905105B6F73204552525D20257328293A25642C200000C5
:209700002599021068616E646C652025700D0A0004ED00E0012180F8E0117047012180F894
:20972000FC1170472DE9F04F89B0044600200790814606900027D4F8BC01017F012903D14B
:20974000007E012800D1012707A9204606F000FB0225C8B1D4F8CC11002011B18879C0F383
:20976000C00001264FF00E0801280FD094F8E40101287DD09DF81C00012879D0A4F8E2819C
:20978000657209B0BDE8F08F6572FAE794F8D50104F1EC0A022802D0012806D00DE081495E
:2097A00020225046FDF7EFFD07E0D4F8BC1150465E312022491CFDF7E6FDD4F8CC011130F4
:2097C00004F12A0120220891FDF74CFE04F2C51BD8B1B4F8D6014FF6FF71203001EAC000BE
:2097E0000590D4F8CC11113120220898FDF7CBFD6D4804F10A01089ACDE9012100905B46EB
:2098000040315046059A10F0F1FE607A012802D04FF0010974E0D4F8CC01807910F0700F30
:2098200046D00020059094F8D20106F0FAFE82465D4890F85410022905D106225946FDF7FB
:2098400011FE002834DC04F16A01CDE900A104F17A00CDE902B604F2C5140490627D0023C8
:209860000121059822F014F8607D23F0C7F800E032E0607D226800EB400101EBC000494999
:20988000253901EB800040F8F42FA2888280627B607D00EB400303EBC00001EB800080F8FD
:2098A0000021607BAC314870207CA4F2C51408709DF81C00012823D12046FFF789F80128C0
:2098C00003D0A4F8E28165725BE7204634F08AF9D4F8BC01067613E001200690607A0128DE
:2098E0000ED12046FFF774F8012803D068B1FF280FD005E0204634F075F9D4F8BC010676C4
:2099000094F8C40101280BD011E0A4F8E281657237E72046FFF736F9A4F8E261657230E7B5
:2099200049462046069A32F07BFB0028CCD0D4F8CC014079C00705D0607A012802D1D4F8A6
:20994000BC010677D4F8BC01017F0129BCD1007E0128B9D1002FB7D11448006839F05EFCDE
:2099600039F0BCF8012031F093FE0024104D04EB441028440178012904D0022906D0032963
:209980000BD107E0093014F02DFA06E0093014F09BFD02E0093014F0F9FB641CE4B2082C88
:2099A000E5D3EEE675060220BCFE0120681B00201C09022008B50020009001208DF80000A6
:2099C00004218DF802108DF8030008208DF80100012012F0B7FE032012F0CCFE002012F0AC
:2099E000B9FE002012F0BEFE072012F095FE062012F08AFE062012F07FFE002012F094FE0D
:209A0000032012F071FE684612F092FC12F08AFC0149086008BD0000E80D002010B520205B
:209A200080F31188BFF34F8FBFF36F8F47F052FB18B104494FF080500860002080F311889D
:209A400010BD000004ED00E0BFF35F8F10490F480860BFF34F8F0E488030016841F470010B
:209A600001600B481C30016841F480310160016841F400310160016841F48021016004481A
:209A80000C30016841F01001016070470000002008ED00E010B5094C0121204612F046FFE9
:209AA000012809D10648406800B180472046BDE81040012112F08ABE10BD000048A0004079
:209AC000780F002032F08EBC32F0DCBC32F02ABD0FB41CB50246002007AC00290BD0491E96
:209AE000CDE90021054B6A462146069801F026FA009A002111701CBC5DF814FB6BB60010D0
:209B00007CB5044600201D46164600290BD0491ECDE90041044B6A462946304601F00EFAAC
:209B2000009A002111707CBD6BB60010002809DB00F01F02012191404009800000F1E020B5
:209B4000C0F88012704700280DDB00F01F02012191404009800000F1E020C0F88011BFF33B
:209B60004F8FBFF36F8F704700280DDB00F01F02012191404009800000F1E020C0F8801189
:209B8000BFF34F8FBFF36F8F7047002809DB00F01F02012191404009800000F1E020C0F84C
:209BA00000117047002809DB00F01F02012191404009800000F1E020C0F800117047490743
:209BC000090E002804DB00F1E02080F80014704700F00F0000F1E02080F8141D7047490793
:209BE000090E002804DB00F1E02080F80014704700F00F0000F1E02080F8141D70470000C3
:209C000008B572B613460A46009003A10C4800F04FF800BEFEE70000417373657274696F0A
:209C20006E204661696C65643A2066696C652025732C206C696E652025642C2025730A0014
:209C400025990210004870477024002002E008C8121F08C1002AFAD170477047002001E071
:209C600001C1121F002AFBD1704700007FB505460C46164629F0B8FD32464FF480710B484A
:209C8000039BFFF73DFF64B12DB12846FDF7D5FB01462846A0470548FDF7CFFB0146034896
:209CA000A047BDE87F4029F0C1BD0000404501200FB410B504AB01460020039AFFF7D6FF16
:209CC00010BC5DF814FB00002DE9FF5F82B00021DDE90430020DDDF840B0034318D044F657
:209CE0001050A2F2FF3242431514119801281FD0A5EB0B00401C5FEA000A4FF000064E4FA4
:209D0000DFF83891B046504615D5CAF1000413E0119801244AA3012801D16FEA0B010298C6
:209D2000119AC0E90031C0E9024206B0BDE8F09FCBF10000DFE704460021404A491842EBC2
:209D40000450CDE9001012E0E00707D032463B4640464946FEF7E8F88046894632463B46C8
:209D600010461946FEF7E0F806460F466410002CEAD1DDE90401DDE90023BAF1000F06DA17
:209D8000FEF7D2F842464B46FEF7CEF805E0FEF73DF942464B46FEF739F904460E46002220
:209DA000284BFEF7BBF903D84FF0FF30014607E00022254B20463146FEF70FF8FEF795F922
:209DC000102409E0002C0ADB0A220023FDF790FA039B30321A55641E50EA0102F2D1641C17
:209DE000039AC4F111031444119A012A03D0012208430DD10AE0084304D000204FF0110B2C
:209E0000119072E7A3EB0B056D1E0DE05B4504DD4FF0000205F1010504E003DA4FF0000272
:209E2000A5F10105002AECD002981199C0E90231C0E9004579E70000000014400000F03FAF
:209E4000300000000000F0430000E03F30380A2801D20120704700207047000070B590B0FF
:209E600006460C46154600210F91089109910A910B910491059106910791009101910291AE
:209E800003912A48406801788C4249D114B1012C07D045E00FA845F003FA9DF83C000328E0
:209EA0003ED1022E07D025F0F3F90CA925F0F6F9002835D109E024B10CA83AF055F970BB8F
:209EC00003E00CA83AF0FAFA48BB102308AA0CA902201FF0F1FE10B3102304AA0DA9022094
:209EE0001FF0EAFED8B110236A460EA902201FF0E3FEA0B108AA29460DA01EF021FA6A463E
:209F000029460BA01EF01CFA04AA294608A01EF017FA0AA01EF014FA002010B070BDFFE766
:209F200008A01EF00DFA0120F7E70000E00E002025733A222573220D0A0000000D0A4F4BE1
:209F40000D0A00000D0A4552524F520D0A0000002DE9F04188B080460C461546002707977B
:209F600001200397029701970097002D7AD04349496809788C4275D1022602AA07A91EF083
:209F8000D3F800286ED19DF81C0000286AD1022D0BD33046032601AA07A91EF0C5F8002881
:209FA00060D19DF81C0000285CD1032D08D330466A4607A91EF0B8F8E8BB9DF81C00D0BBEC
:209FC00014B1012C08D04DE003A839F00FFE9DF80C0040B1039706E003A839F097FE9DF899
:209FE0000C0000B10397B8F1020F06D025F050F904A925F053F9F0B909E024B104A83AF0D1
:20A00000B3F8C0B903E004A83AF058FA98B904AA022002991FF06CFE68B1022D05D306AA0C
:20A02000022001991FF064FE28B1032D07D305AA0220009900E015E01FF05AFE90B125F014
:20A0400027F904A925F05BF960B9B8F1020F10D124B104A83AF09CF820B90AE004A83AF03E
:20A060003FFA30B106A01EF06BF9012008B0BDE8F08106A01EF064F90020F7E7E00E0020A2
:20A080000D0A4552524F520D0A0000000D0A4F4B0D0A000030B5A1B00C46242118A8FDF7BF
:20A0A00099F9442107A8FDF795F91C4D68680078032803D145F0B6F869680870012805D09E
:20A0C00017A01EF03DF9012021B030BD002004900590069004A839F0DFFF20B907A918A8CB
:20A0E0003AF0DAF820B10EA01EF02AF90120EBE79DF811009DF8121004239DF81020CDE9C2
:20A100000231CDE9002007AB18AA214607A01EF017F90DA01EF014F90020D5E7E00E0020E4
:20A120000D0A4552524F520D0A00000025733A222573222C222573222C25642C25642C25F6
:20A14000642C2564000000000D0A4F4B0D0A00002DE9F04FA5B00E461746002524950124C0
:20A16000282114A8FDF736F9139511951295109506200F904FF00408CDF83880CDF8348017
:20A180000C95002F10D0062E0ED8B84F78680078032803D145F046F879680870012804D0CE
:20A1A000B3A1B948FFF784FD54E111A83AF024F80028F9D19DF847209DF846309DF84900C8
:20A1C0009DF84810CDE90210CDE900329DF845309DF84420ADA1AC48FFF76AFD4FF00209F6
:20A1E00020464F4613AA24A91DF09EFF0028DBD19DF890001399401E0842D5D04FF0030AF2
:20A200003846544610AA24A91DF08EFF0028CBD19DF8900000B1109521A8834639F03CFFD0
:20A220000028C1D1204604270FAA24A91DF034FF0028B9D19DF8900010B19DF884000F90BD
:20A24000384605273C460EAA24A91DF025FF0028AAD19DF8900000B10E97052E0CD3204686
:20A2600006240DAA24A91DF017FF00289CD19DF8900008B1CDF83480062E0CD320460CAAF2
:20A2800024A91DF009FF00288ED19DF8900010B19DF886000C900F98C1B28DF884100E98DF
:20A2A00000287DD002287CD003287BD004287AD0052879D08DF885500C98C0B28DF88600D6
:20A2C000139A1E92109B1F9311AC2094BDF888409DF885600D9F8DE8C200CDE903047549FE
:20A2E0006948FFF7E5FC45F033FE0021012025F027F809950A950B951C2102A8FDF76AF8E0
:20A3000009A839F031FF02A839F0D0FC08F05CFC08B108F0C5FD02A808F002FB18B166A162
:20A320005948FFF7C5FC09A819F010FF024669A15548FFF7BDFC0BA819F008FF02466BA147
:20A340005148FFF7B5FC0AA819F000FF02466DA14D48FFF7ADFC02A819F0F8FE02466FA178
:20A360004948FFF7A5FC06A819F0F0FE024672A14548FFF79DFC07A819F0E8FE024675A19D
:20A380004148FFF795FC9DF820000599CDE90010BDF80C2076A13C48049BFFF789FC04E01A
:20A3A0002AE02CE02EE030E032E011A9012024F0B7FF09A9012024F0A2FF0121084624F0A6
:20A3C000BFFF012024F08EFF23951F9868B31F98FDF733F848B39DF8850030B3012824D088
:20A3E000282114A8FCF7F6FFDDE91E01282314AA1FF048F988B118E08DF885505CE78DF8DF
:20A40000859059E78DF885A056E78DF8858053E79DF885008DF885004EE714A82390282329
:20A4200014AA5EA1032014F0ABFF1EA845F05CFB38B140F20D535C4A5CA11348FFF738FC99
:20A4400008E0DDE91E0139F055FF18B9584639F037FE30B15EA01DF073FF012025B0BDE8EC
:20A46000F08F5EA01DF06CFF0020F7E7E00E00204E6F7420776F726B20696E204150206D92
:20A480006F64650D0A0000002599021062737369643A20253032783A253032783A25303235
:20A4A000783A253032783A253032783A253032780D0A0000082E051064686370642068612B
:20A4C00073206265656E2072756E6E696E67210D0A000000697020696E666F3A200D0A6977
:20A4E000703A202020202025730D0A00697020696E666F3A200D0A67773A20202020202570
:20A50000730D0A00697020696E666F3A200D0A6E65746D61736B3A25730D0A0073657276FF
:20A52000657220636F6E6669673A0D0A69703A2025730D0A00000000697020696E666F3A9C
:20A54000200D0A69702073746172743A25730D0A00000000697020696E666F3A200D0A6935
:20A560007020656E643A202025730D0A00000000706F72743A25640D0A6C656173653A25E3
:20A58000640D0A72656E65773A25640D0A636C69656E743A25640D0A0000000070736B207E
:20A5A00076616C7565200000D81705105B25733A25645D20776966695F736F667461705F2D
:20A5C00073746172742829206661696C656421000D0A4552524F520D0A0000000D0A4F4BED
:20A5E0000D0A000030B587B00D46002802D0012805D008E005A839F0A3FF20B909E005A80E
:20A6000039F0FAFD28B10FA01DF09AFE012007B030BD9DF819009DF818209DF817309DF83C
:20A620001640CDE90043CDE902209DF815309DF81420294606A01DF083FE0FA01DF080FE73
:20A640000020E4E70D0A4552524F520D0A00000025733A22253032783A253032783A25309C
:20A6600032783A253032783A253032783A25303278220D0A000000000D0A4F4B0D0A000084
:20A680001CB5044600220192009201A839F0AEFA684639F03BFB9DF804209DF800302146EC
:20A6A00042EA430203A01DF04BFE04A01DF048FE00201CBD25733A25640D0A000D0A4F4B1D
:20A6C0000D0A000010B592B004460020119006900790089009900290039004900590184845
:20A6E00040680078012826D111A839F00FFB10BB9DF84400F8B10AA839F0D8FAD8B9102370
:20A7000006AA0EA902201FF0D7FAA0B1102302AA0FA902201FF0D0FA68B102A8009006ABE9
:20A72000214608A00C9A1DF00BFE0BA01DF008FE002012B010BD0AA01DF002FE0120F8E72A
:20A74000E00E002025733A25642C222573222C222573220D0A0000000D0A4F4B0D0A0000A1
:20A760000D0A4552524F520D0A00000038B50D46022815D0184C6068007803281AD0009089
:20A780009DF8002015A11B48FFF792FA9DF80000B0B1012816D018A01DF0D2FD082038BDB3
:20A7A000684639F03BFC0028F0D013A01DF0C8FD012038BD44F036FD616808700090DFE70A
:20A7C000012200E0022229460EA01DF0B9FD0FA01DF0B6FD002038BDE00E00206375727224
:20A7E000656E7420776F726B206D6F64653A25640D0A0000259902100D0A4552524F520D12
:20A800000A00000025733A25640D0A000D0A4F4B0D0A00002DE9F04399B006460F4600249D
:20A820001894012516941294139414941594282108A8FCF7CFFD0694079405940494039449
:20A840000FB1032E03D9022019B0BDE8F083DFF89481D8F804000078032804D144F0E2FCDE
:20A86000D8F80410087020B15FA01DF069FD0020EAE728464FF0020905AA18A91DF054FCC3
:20A8800020B159A01DF05CFD0420DDE79DF860000599401E084204D153A01DF051FD05201D
:20A8A000D2E74846032504AA18A91DF03DFC20B14DA01DF045FD0420C6E79DF86000049904
:20A8C000401E084204D148A01DF03AFD0520BBE7032E15D1284603AA18A91DF025FC20B116
:20A8E00041A01DF02DFD0420AEE79DF860000399401E084204D13CA01DF022FD0520A3E7C2
:20A90000039800B93BA00090DDE904323BA14548FFF7CEF9039810B101A945F02FFD06A841
:20A9200039F00EFE00284DD117A839F037FE002848D10598129004981390039808B101A8C3
:20A9400000E000201490159416A839F051FE88BB1398FCF772FD70B1DDE91201282308AA2D
:20A960001EF090FE30BB08A81590282308AA2EA1032014F005FD45F08FF945F0E9FA002110
:20A98000084624F0DDFC06A9002024F0C9FC002024F0A8FC9DF85C1006A845F0B1FA16A9AE
:20A9A00012A845F013F930B1DDE9122321A11D48FFF77EF906E098F8000068B112A839F0BA
:20A9C00005FD48B10422394622A01DF0B9FC23A01DF0B6FC012037E723A01DF0B1FC0020F5
:20A9E00032E70000E00E00200D0A4552524F520D0A0000004E554C4C000000004154204345
:20AA0000574A41503A5B737369643A25733B207077643A25733B2062737369643A25735DD3
:20AA20000D0A00002599021070736B2076616C75652000004A6F696E206661696C6564214E
:20AA400020737369643A25732C207077643A25730D0A000025733A25640D0A000D0A4641C1
:20AA6000494C0D0A000000000D0A4F4B0D0A00003EB500210291012201910091022820D15A
:20AA8000104602252C4601AA02A91DF005FBC0B99DF8080000B1019520466A4602A91DF039
:20AAA000FBFA70B99DF8080008B101200090009808B1012805D1019941B101290AD0022966
:20AAC0000CD00CA01DF03CFC01203EBDC0B239F02DF90AE0C0B239F099F806E0C0B239F035
:20AAE00025F90098C0B239F091F805A01DF028FC00203EBD0D0A4552524F520D0A000000D3
:20AB00000D0A4F4B0D0A000030B58DB0054600200C9001230B90039002900190002D55D07D
:20AB2000304840680078012850D102240BAA0CA918461DF0B1FAE0BB9DF83000C8BB022D7B
:20AB400009D32046032403AA0CA91DF0A5FA80BB9DF8300068BB032D0DD32046641CE4B2CF
:20AB600002AA0CA91DF0E0FA18BB9DF830000299401E08422AD0042D0BD3204601AA0CA9E3
:20AB80001DF0D2FAA8B99DF830000199401E08421CD00B98C0B239F0C9F850B90B98D8B154
:20ABA00004A807F0B1FE20B90398069008A9029800E00BE019F022FA40B109A9019819F0B9
:20ABC0001DFA18B104A839F083F828B106A01DF0B7FB01200DB030BD06A01DF0B1FB0020BD
:20ABE000F8E70000E00E00200D0A4552524F520D0A0000000D0A4F4B0D0A000030B589B0CA
:20AC000005460020089001230590012941D106900790184605AA08A91DF086FA002838D193
:20AC20009DF82000002834D107A8421E831ECDE900320DF11D01CDE90201C31E06AA1AA179
:20AC400005981CF0A5FC04469DF81B209DF81D109DF81C009DF81A30CDE90132CDE903019B
:20AC60009DF8190000909DF81830224613A12048FFF71EF8062C0CD115B1012D05D008E069
:20AC800006A839F06DFC20B909E006A839F0C6FA28B118A01DF054FB012009B030BD18A0AF
:20ACA0001DF04EFB0020F8E725783A25783A25783A25783A25783A25780000007265743AEA
:20ACC00025643B206D616320616464723A22253032783A253032783A253032783A25303216
:20ACE000783A253032783A25303278220D0A0000259902100D0A4552524F520D0A000000A9
:20AD00000D0A4F4B0D0A000030B58DB0044600200C900B900A9009900890002C05D0334D5C
:20AD200068680078032806D009E031A01DF008FB02200DB030BD44F075FA6968087038B15F
:20AD40002EA01DF0FDFA2FA01DF0FAFA0020F0E708A909A844F078FA18B90CA844F0A0FAFF
:20AD600020B123A01DF0ECFA0120E2E79DF83000032807D021A01DF0E3FA22A01DF0E0FA47
:20AD80000020D6E7099830B1089820B10BA844F071FA48B904E016A01DF0D2FA0120C8E74D
:20ADA0000AA845F029F820B111A01DF0C9FA0120BFE708989DF928509DF82C1042790379BC
:20ADC000CDE90515CDE903328278C1784378CDE900320291037821460CA0099A1DF0B0FA67
:20ADE00008A01DF0ADFA0020A3E70000E00E00200D0A4552524F520D0A0000004E6F204169
:20AE0000500D0A000D0A4F4B0D0A000025733A222573222C22253032783A253032783A2570
:20AE20003032783A253032783A253032783A25303278222C25642C25640D0A007CB504466F
:20AE40000D46002001900090012C03D0022C01D002207CBD01AA694601201DF01DF908B1AD
:20AE600004207CBD9DF8002011A11848019BFEF71FFF9DF8000008B105207CBD019B042B88
:20AE800006D3224612A11148FEF712FF02207CBD022B07D0012B07D01AA10C48FEF708FFF2
:20AEA00008207CBD012000E00020287000207CBD69735F64656661756C743A25643B20766B
:20AEC000616C75653A25640D0A00000025990210496E70757420706172616D206572726F08
:20AEE000722120706172616D206E756D3A25642C20666972737420706172616D3A25640DE6
:20AF00000A0000004E6F7420537570706F72742041542B535441206D6F64652120416E64F8
:20AF2000206E6F7420737570706F727420737769746368206F666620726621002DE9FF4FD9
:20AF400095B09B468946064600250FE2252877D100242746F84A0121059400E0044316F842
:20AF6000013F203B01FA03F01042F7D130782A2811D06FF02F033078A0F13002092A16D836
:20AF8000059A44F0020402EB820203EB42021044761C0590EFE759F8042B0592002A03DAC6
:20AFA000504244F40054059044F00204761C30782E2816D116F8010F44F004042A280DD0A4
:20AFC0006FF02F023078A0F13003092B09D807EB870302EB4303C718761CF3E759F8047B96
:20AFE000761C30786C280FD006DC4C2817D068280DD06A2814D104E0742810D07A280FD1A1
:20B000000DE044F400140AE044F4801401E044F440147278824202D104F58014761C761CA2
:20B02000307866280BD013DC582877D009DC002875D04528F6D04628F4D047281AD19DE1BA
:20B0400018E0632835D0642879D0652812D195E1702873D008DC6728F1D069286FD06E2838
:20B060000DD06F2806D1B5E073282CD0752875D0782874D05A46179990476D1C75E1C4F3D6
:20B080000250022809D003280DD0D9F8001004280DD00D6009F1040967E1D9F80010EA17CB
:20B0A000C1E90052F6E7D9F800100D80F2E70D70F0E719F8041B8DF8001000208DF80100B1
:20B0C000EA46012003E059F804AB4FF0FF3061074FF0000102D40DE008F101018846B9429F
:20B0E0000FDA8045F8DB1AF808100029F4D108E008F1010188468142FADB1AF8081000291B
:20B10000F6D105985B46A0EB080721463846179A00F094FA284400EB080507E04DE029E1FA
:20B120000DE01AF8010B5A4617999047B8F10108F7D25B4621463846179A13E142E00A22E9
:20B140000092C4F302524FF0000A022A08D059F804CB032A4FEAEC710AD00DE029E02AE048
:20B1600009F1070121F00702F2E802C1914609E00FFA8CFC4FEAEC71042A03D14FFA8CFC5C
:20B180004FEAEC71002907DA0A460021DCF1000C61EB02012D2202E0220504D52B228DF873
:20B1A0000420012203E0E20701D02022F7E7904659E00A2102E010220DE010214FF0000AD6
:20B1C00000910BE010224FF0000A44F004040827009203E008224FF0000A0092C4F3025288
:20B1E000022A05D059F804CB0021032A08D009E009F1070121F00702F2E802C1914605E0AA
:20B200001FFA8CFC042A01D10CF0FF0C4FF00008220728D5702806D0009B83F0100353EA4D
:20B220000A0305D00EE040228DF80420012208E05CEA010206D030228DF804208DF8050084
:20B2400002229046009B83F0080353EA0A030AD15CEA010201D1620705D530228DF804205D
:20B260004FF001087F1E582804D034A003900EA802900DE036A0F9E753466046009AFCF777
:20B2800037F884460398825C0298401E029002705CEA0100F0D1029806A9081A00F1200AB2
